:020000040800F2
:100000000030002019450008152D00081D2D00089E
:10001000252D00082D2D0008352D000800000000BA
:100020000000000000000000000000003D2D00085E
:100030004B2D000800000000592D0008672D000816
:100040006D4500086D4500086D450008732D0008DA
:100050006D4500086D450008CD2D00086D45000870
:100060006D4500086D450008DB2D00086D45000852
:100070006D4500086D450008812D00086D4500089C
:100080006D4500086D4500086D4500080000000042
:10009000000000006D4500086D450008E92D0008CE
:1000A0006D4500086D4500086D4500086D45000868
:1000B0006D4500086D4500086D4500086D45000858
:1000C00000000000000000006D4500080000000076
:1000D000952D00086D450008000000006D450008E2
:1000E0006D4500086D450008000000006D450008E2
:1000F000A92D0008B52D0008C12D00086D45000888
:100100006D45000800000000000000000000000035
:100110006D4500086D4500086D45000800000000B1
:1001200000000000000000000000000000000000CF
:0C01300000000000000000006D45000809
:1001400010B5054C237833B9044B13B10448AFF311
:1001500000800123237010BD680200200000000011
:1001600078F6000808B5034B1BB103490348AFF309
:10017000008008BD000000006C02002078F6000836
:1001800010F8012B11F8013B012A28BF9A42F7D041
:10019000D01A7047000000000000000000000000BE
:1001A00001F0FF01102A2BDB10F0070F08D010F828
:1001B000013B013A8B422DD010F0070F42B3F6D12C
:1001C000F0B441EA012141EA014122F007047FF045
:1001D00000070023F0E80256083C85EA010586EA9C
:1001E000010685FA47F5A3FA87F586FA47F6A5FAD8
:1001F00087F68EB9EED1F0BC01F0FF0102F00702E4
:1002000032B110F8013B013A83EA010313B1F8D18E
:100210000020704701387047002D06BF354603386F
:10022000073815F0010F07D1013015F4807F02BFA8
:10023000013015F4C03F0130F0BC0138704700BFF9
:10024000034613F8012B002AFBD1181A0138704716
:1002500081F0004102E000BF83F0004330B54FEA77
:1002600041044FEA430594EA050F08BF90EA020FE4
:100270001FBF54EA000C55EA020C7FEA645C7FEA77
:10028000655C00F0E2804FEA5454D4EB5555B8BF9A
:100290006D420CDD2C4480EA020281EA030382EA0B
:1002A000000083EA010180EA020281EA0303362D9D
:1002B00088BF30BD11F0004F4FEA01314FF4801C70
:1002C0004CEA113102D0404261EB410113F0004F82
:1002D0004FEA03334CEA133302D0524263EB430339
:1002E00094EA050F00F0A780A4F10104D5F1200ED7
:1002F0000DDB02FA0EFC22FA05F2801841F1000132
:1003000003FA0EF2801843FA05F359410EE0A5F105
:1003100020050EF1200E012A03FA0EFC28BF4CF036
:10032000020C43FA05F3C01851EBE37101F00045EC
:1003300007D54FF0000EDCF1000C7EEB00006EEBF9
:100340000101B1F5801F1BD3B1F5001F0CD3490883
:100350005FEA30004FEA3C0C04F101044FEA4452DA
:1003600012F5800F80F09A80BCF1004F08BF5FEA61
:10037000500C50F1000041EB045141EA050130BD41
:100380005FEA4C0C404141EB0101013C28BFB1F553
:10039000801FE9D291F0000F04BF01460020B1FA9E
:1003A00081F308BF2033A3F10B03B3F120020CDA71
:1003B0000C3208DD02F1140CC2F10C0201FA0CF04F
:1003C00021FA02F10CE002F11402D8BFC2F1200CB4
:1003D00001FA02F120FA0CFCDCBF41EA0C0190406A
:1003E000E41AA2BF01EB0451294330BD6FEA0404B3
:1003F0001F3C1CDA0C340EDC04F11404C4F120029E
:1004000020FA04F001FA02F340EA030021FA04F3AF
:1004100045EA030130BDC4F10C04C4F1200220FA06
:1004200002F001FA04F340EA0300294630BD21FA44
:1004300004F0294630BD94F0000F83F4801306BF0A
:1004400081F480110134013D4EE77FEA645C18BFFE
:100450007FEA655C29D094EA050F08BF90EA020F95
:1004600005D054EA000C04BF1946104630BD91EA8D
:10047000030F1EBF0021002030BD5FEA545C05D190
:100480004000494128BF41F0004130BD14F58004CF
:100490003CBF01F5801130BD01F0004545F0FE4143
:1004A00041F470014FF0000030BD7FEA645C1ABF78
:1004B000194610467FEA655C1CBF0B46024650EAAF
:1004C000013406BF52EA033591EA030F41F40021DB
:1004D00030BD00BF90F0000F04BF0021704730B561
:1004E0004FF4806404F132044FF000054FF0000136
:1004F00050E700BF90F0000F04BF0021704730B5F7
:100500004FF4806404F1320410F0004548BF4042CB
:100510004FF000013EE700BF42004FEAE2014FEA20
:1005200031014FEA02701FBF12F07F4393F07F4FFB
:1005300081F06051704732F07F4208BF704793F0FE
:100540007F4F04BF41F40021704730B54FF4607411
:1005500001F0004521F000411CE700BF50EA010214
:1005600008BF704730B54FF000050AE050EA0102BD
:1005700008BF704730B511F0004502D5404261EB2D
:1005800041014FF4806404F132045FEA915C3FF46E
:10059000D8AE4FF003025FEADC0C18BF03325FEA0B
:1005A000DC0C18BF033202EBDC02C2F1200300FABC
:1005B00003FC20FA02F001FA03FE40EA0E0021FAE1
:1005C00002F11444BDE600BF70B54FF0FF0C4CF4CF
:1005D000E06C1CEA11541DBF1CEA135594EA0C0F81
:1005E00095EA0C0F00F0DEF82C4481EA030621EABC
:1005F0004C5123EA4C5350EA013518BF52EA0335F7
:1006000041F4801143F4801338D0A0FB02CE4FF0A8
:100610000005E1FB02E506F00042E0FB03E54FF0D8
:100620000006E1FB03569CF0000F18BF4EF0010ED0
:10063000A4F1FF04B6F5007F64F5407404D25FEACC
:100640004E0E6D4146EB060642EAC62141EA55517F
:100650004FEAC52040EA5E504FEACE2EB4F1FD0CC1
:1006600088BFBCF5E06F1ED8BEF1004F08BF5FEA3F
:10067000500E50F1000041EB045170BD06F00046F1
:1006800046EA010140EA020081EA0301B4EB5C049E
:10069000C2BFD4EB0C0541EA045170BD41F4801196
:1006A0004FF0000E013C00F3AB8014F1360FDEBFBB
:1006B000002001F0004170BDC4F10004203C35DA97
:1006C0000C341BDC04F11404C4F1200500FA05F31A
:1006D00020FA04F001FA05F240EA020001F00042BB
:1006E00021F0004110EBD37021FA04F642EB060131
:1006F0005EEA430E08BF20EAD37070BDC4F10C045B
:10070000C4F1200500FA04F320FA05F001FA04F21E
:1007100040EA020001F0004110EBD37041F100010A
:100720005EEA430E08BF20EAD37070BDC4F1200515
:1007300000FA05F24EEA020E20FA04F301FA05F27D
:1007400043EA020321FA04F001F0004121FA04F225
:1007500020EA020000EBD3705EEA430E08BF20EAF5
:10076000D37070BD94F0000F0FD101F0004640002F
:1007700041EB010111F4801F08BF013CF7D041EAB1
:10078000060195F0000F18BF704703F000465200B5
:1007900043EB030313F4801F08BF013DF7D043EA86
:1007A0000603704794EA0C0F0CEA135518BF95EA3C
:1007B0000C0F0CD050EA410618BF52EA4306D1D1C3
:1007C00081EA030101F000414FF0000070BD50EAE2
:1007D000410606BF1046194652EA430619D094EA6C
:1007E0000C0F02D150EA013613D195EA0C0F05D156
:1007F00052EA03361CBF104619460AD181EA0301AA
:1008000001F0004141F0FE4141F470014FF0000061
:1008100070BD41F0FE4141F4780170BD70B54FF0FC
:10082000FF0C4CF4E06C1CEA11541DBF1CEA13557C
:1008300094EA0C0F95EA0C0F00F0A7F8A4EB05045E
:1008400081EA030E52EA03354FEA013100F0888055
:100850004FEA03334FF0805545EA131343EA12631E
:100860004FEA022245EA111545EA10654FEA0026D3
:100870000EF000419D4208BF964244F1FD0404F58C
:10088000407402D25B084FEA3202B61A65EB0305E8
:100890005B084FEA32024FF480104FF4002CB6EBA5
:1008A000020E75EB030E22BFB61A754640EA0C0025
:1008B0005B084FEA3202B6EB020E75EB030E22BF65
:1008C000B61A754640EA5C005B084FEA3202B6EBA6
:1008D000020E75EB030E22BFB61A754640EA9C0065
:1008E0005B084FEA3202B6EB020E75EB030E22BF35
:1008F000B61A754640EADC0055EA060E18D04FEAF3
:10090000051545EA16754FEA06164FEAC30343EA92
:1009100052734FEAC2025FEA1C1CC0D111F4801F5F
:100920000BD141EA00014FF000004FF0004CB6E758
:1009300011F4801F04BF01430020B4F1FD0C88BFF7
:10094000BCF5E06F3FF6AFAEB5EB030C04BFB6EB02
:10095000020C5FEA500C50F1000041EB045170BDF5
:100960000EF0004E4EEA113114EB5C04C2BFD4EB22
:100970000C0541EA045170BD41F480114FF0000EA6
:10098000013C90E645EA060E8DE60CEA135594EA22
:100990000C0F08BF95EA0C0F3FF43BAF94EA0C0F25
:1009A0000AD150EA01347FF434AF95EA0C0F7FF49A
:1009B00025AF104619462CE795EA0C0F06D152EAEE
:1009C00003353FF4FDAE1046194622E750EA4106D2
:1009D00018BF52EA43067FF4C5AE50EA41047FF4E3
:1009E0000DAF52EA43057FF4EBAE12E74FF0FF3C48
:1009F00006E000BF4FF0010C02E000BF4FF0010C19
:100A00004DF804CD4FEA410C7FEA6C5C4FEA430C91
:100A100018BF7FEA6C5C1BD001B050EA410C0CBFE0
:100A200052EA430C91EA030F02BF90EA020F002042
:100A3000704710F1000F91EA030F58BF994208BFA9
:100A400090422CBFD8176FEAE37040F00100704766
:100A50004FEA410C7FEA6C5C02D150EA013C07D1BD
:100A60004FEA430C7FEA6C5CD6D152EA033CD3D008
:100A70005DF8040B704700BF8446104662468C4602
:100A80001946634600E000BF01B5FFF7B7FF002835
:100A900048BF10F1000F01BD4DF808EDFFF7F4FF5E
:100AA0000CBF012000205DF808FB00BF4DF808EDE9
:100AB000FFF7EAFF34BF012000205DF808FB00BF0C
:100AC0004DF808EDFFF7E0FF94BF012000205DF82E
:100AD00008FB00BF4DF808EDFFF7CEFF94BF0120E3
:100AE00000205DF808FB00BF4DF808EDFFF7C4FFDC
:100AF00034BF012000205DF808FB00BF4FEA410C25
:100B00007FEA6C5C02D150EA013C0AD14FEA430C07
:100B10007FEA6C5C02D152EA033C02D14FF0000044
:100B200070474FF0010070474FEA410212F5001282
:100B300015D211D56FF47873B3EB625212D94FEA24
:100B4000C12343F0004343EA505311F0004F23FA0E
:100B500002F018BF404270474FF00000704750EA63
:100B6000013005D111F0004008BF6FF00040704720
:100B70004FF00000704700BF53B94AB9002908BFC1
:100B800000281CBF4FF0FF314FF0FF3000F06AB972
:100B9000ADF1080C6DE904CE00F006F8DDF804E0D4
:100BA000DDE9022304B070472DE9F047089D0C46AB
:100BB000002B4ED194468C458646B2FA82F262D919
:100BC0004AB1C2F12003914020FA03F30CFA02FC6F
:100BD000194300FA02FE4FEA1C471FFA8CF6B1FBDC
:100BE000F7F44FEA1E4307FB141143EA014304FBE9
:100BF00006F199420AD91CEB030304F1FF3080F09F
:100C00001281994240F20F81023C6344591A1FFA43
:100C10008EF3B1FBF7F007FB101143EA014300FB31
:100C200006F69E420AD91CEB030300F1FF3180F067
:100C3000FC809E4240F2F980634402389B1B40EAEC
:100C4000044000211DB1D3400022C5E90032BDE8B7
:100C5000F0878B4205D90DB1C5E900010021084696
:100C6000F5E7B3FA83F1002946D1A34202D39042BB
:100C7000C0F0F080861A64EB03030120002DE6D05B
:100C8000C5E90063E3E7002A40F09080A1EB0C0483
:100C90004FEA1C481FFA8CF70121B4FBF8F64FEA23
:100CA0001E4308FB164443EA044307FB06F0984240
:100CB00008D91CEB030306F1FF3402D2984200F27C
:100CC000CD8026461C1A1FFA8EF3B4FBF8F008FB01
:100CD000104443EA044300FB07F79F4208D91CEB8A
:100CE000030300F1FF3402D29F4200F2B08020469D
:100CF000DB1B40EA0640A5E7C1F120068B4022FA43
:100D000006F71F4320FA06FC04FA01F343EA0C033A
:100D1000F44000FA01F8380C4FEA1349B4FBF0FE36
:100D20001FFA87FC00FB1E4449EA04440EFB0CF941
:100D3000A14502FA01F20AD93C190EF1FF3A80F0FE
:100D40008480A14540F28180AEF1020E3C44A4EBC8
:100D500009041FFA83F9B4FBF0F300FB134449EADA
:100D6000044403FB0CFCA44507D93C1903F1FF30F4
:100D700067D2A44565D9023B3C4443EA0E40A0FB40
:100D80000293A4EB0C049C42CE469C4651D34ED019
:100D900055B1B8EB0E0364EB0C0404FA06F6CB4035
:100DA0001E43CC40C5E90064002150E7C2F1200396
:100DB00020FA03F10CFA02FC24FA03F394400C43EA
:100DC0004FEA1C4800FA02FE1FFA8CF7B3FBF8F05A
:100DD00008FB1031230C43EA014300FB07F1994261
:100DE00008D91CEB030300F1FF362CD299422AD913
:100DF000023863445B1AA4B2B3FBF8F108FB113369
:100E000044EA034401FB07F3A34208D91CEB0404A2
:100E100001F1FF3613D2A34211D902396444E41A16
:100E200041EA004139E70446F0E6084606E7C845CE
:100E3000AED2B9EB020E63EB070C0138A8E73146DE
:100E4000EDE7034699E73046D4E7D6467FE76344AB
:100E500002384DE70646234608460FE7023E634444
:100E600030E700BF704700BF80B483B000AF786048
:100E7000064BD3F8902005497B681343C1F89030A6
:100E800000BF0C37BD465DF8047B70470008005872
:100E900080B485B000AF78604FF0B043DA6C4FF0AB
:100EA000B0417B681343CB644FF0B043DA6C7B688E
:100EB0001340FB60FB6800BF1437BD465DF8047B40
:100EC000704780B485B000AF78604FF0B043D3F87E
:100ED0004C214FF0B0417B681343C1F84C314FF0C7
:100EE000B043D3F84C217B681340FB60FB6800BF24
:100EF0001437BD465DF8047B704780B500AF03F042
:100F00005BFD03F05FFD4FF48030FFF7ADFF09F0AC
:100F100043FE00F021F800F0C1F800BF80BD0000E2
:100F2000B0B588B000AF0B4B3C1D1D460FCD0FC4B4
:100F300095E8070003C422800234130C23700BF0E1
:100F400077FB3B1D18460AF0CCF900BF2037BD46A1
:100F5000B0BD00BF90F6000880B588B000AF3B1D63
:100F600000221A605A609A60DA601A610023BB831B
:100F700000237B8300233B830023FB7736E0FB7F4A
:100F8000434ADB0013449B79002B2CD0FB7F404A63
:100F900052F833303F4A93421BD03E4A934221D805
:100FA000B3F1904F03D03C4A934209D01AE0FB7F43
:100FB000374ADB0013449A88BB8B1343BB8312E090
:100FC000FB7F334ADB0013449A887B8B13437B837C
:100FD00009E0FB7F2E4ADB0013449A883B8B1343C6
:100FE0003B8300E000BFFB7F0133FB77FB7F252BBA
:100FF000C5D90023FB600123BB6003233B61BB8B8E
:10100000002B14D0BB8B7B600120FFF741FF012038
:10101000FFF757FF3B1D19464FF0904004F0C6F90B
:10102000BB8B002219464FF0904004F027FB7B8BCE
:10103000002B12D07B8B7B600220FFF729FF022060
:10104000FFF73FFF3B1D1946134804F0AFF97B8BB8
:1010500000221946104804F011FB3B8B002B13D0E3
:101060003B8B7B600420FFF713FF0420FFF729FF71
:101070003B1D1946074804F099F93B8B002219469D
:10108000044804F0FBFA00BF00BF2037BD4680BD16
:10109000400B0108000800480004004880B400AF7D
:1010A00000BFBD465DF8047B704780B500AF01F01E
:1010B0001DFC00BF80BD80B584B000AFF8600B465A
:1010C0007A607B817A897B68F968002001F028FAD0
:1010D00000BF1037BD4680BD80B483B000AF7860DC
:1010E000074BD3F8803023F0070205497B68134390
:1010F000C1F8803000BF0C37BD465DF8047B7047F7
:101100000004005880B483B000AF7860064BD3F879
:10111000902005497B681343C1F8903000BF0C371D
:10112000BD465DF8047B70470008005880B483B06A
:1011300000AF78604FF0B0430A4AC3F89C204FF0EC
:10114000B043D3F89C3023F47C527B681B024FF0F1
:10115000B0411343C1F89C3000BF0C37BD465DF869
:10116000047B7047FECAFECA80B483B000AF7860CB
:101170004FF0B0439B6823F400424FF0B0417B68CE
:1011800013438B6000BF0C37BD465DF8047B70478E
:1011900080B400AF044B1B68C3F30B031846BD4675
:1011A0005DF8047B704700BF002004E080B400AF0E
:1011B000044B1B681B0C9BB21846BD465DF8047BB4
:1011C000704700BF002004E080B483B000AF7860B7
:1011D0007B68FF225A6200BF0C37BD465DF8047B76
:1011E000704780B483B000AF78607B68CA225A62CF
:1011F0007B6853225A6200BF0C37BD465DF8047B02
:10120000704780B483B000AF786039607B689B68BA
:1012100023F007023B681A437B689A6000BF0C37D3
:10122000BD465DF8047B704780B500AF044B4FF4BA
:1012300000421A6100F030F800F035F800BF80BDC0
:101240000040005880B500AF00F041F800F05AF8B7
:101250000949002000F0D4FEFFF74FFE01210120D4
:101260000BF084FA00F0B2F900F0C0F900F01CFABB
:1012700000F058F800BF80BD9004002080B400AF9B
:1012800000BFBD465DF8047B704780B500AF5020BD
:10129000FFF738FF00BF80BD80B400AF00BFBD4680
:1012A0005DF8047B704780B582B000AF002009F084
:1012B000ADFE78607B68002B05D07B689B79184673
:1012C000FFF734FF00BF00BF0837BD4680BD80B5C3
:1012D00000AFFFF7D3FFFFF7D8FF00F003F800BF20
:1012E00080BD000080B500AF0548FFF77AFF002100
:1012F0000348FFF786FF0248FFF766FF00BF80BD87
:101300000028004080B500AF4FF40040FFF72CFFED
:101310000BF01AFA0420FFF7DFFE04F0A9FA00BF71
:1013200080BD000080B588B000AF0AF0CBFF114A45
:10133000002140200BF046FB0F4B3B600F4B7B60C6
:101340003B4619460E480AF0A7F80E4BBB600E4B01
:10135000FB600E4B3B6140F23C537B6107F108039D
:1013600018460BF0F1F80AF0A7FF00BF2037BD4682
:1013700080BD00BFD1B400083407032091130008DA
:10138000A91300084C09032040080320F80103209A
:1013900080B483B000AF0346FB7100BF0C37BD467D
:1013A0005DF8047B7047000080B588B000AF7860BE
:1013B0007B685B680B33FB61FB691B889BB2A3F501
:1013C0001243072B60D801A252F823F0ED13000856
:1013D0002F1400083D14000889140008591400084F
:1013E00069140008711400088114000807F10C0347
:1013F000184609F0A3FF3B7B19467B7B1A46BB7B53
:1014000024480CF025F93B7C194623480CF020F9C0
:10141000BB7D1946FB7D1A463B7E20480CF018F92F
:101420001F480CF015F9786800F070F82DE01D48A1
:101430000CF00EF9786800F043F826E01A480CF03A
:1014400077F9FB6902331968FB6902335B681A4656
:1014500016480CF0FDF818E0FB6902331B681946CA
:1014600013480CF0F5F810E012480CF0F1F80CE01D
:10147000FB6902331B6819460F480CF0E9F804E0D9
:101480000E480CF0E5F800E000BF00BF2037BD4675
:1014900080BD00BFACF60008D0F60008ECF60008EE
:1014A00004F7000824F7000848F7000898F7000838
:1014B000C0F70008FCF7000820F800085CF80008F6
:1014C00080B584B000AF78607B685B680B33FB60ED
:1014D000FB680233BB60BB681B78194608480CF0F8
:1014E000B7F8BB681B78002B03D106480CF020F935
:1014F00003E005480CF01CF900BF1037BD4680BD65
:1015000080F80008B0F80008ECF8000880B58AB050
:1015100000AF786007F1080300221A605A609A60F1
:10152000DA6000237B6200233B627B685B680B33DD
:10153000FB61FB690233BB61BB691B78002B28D1BF
:101540001D480CF0F5F8FFF7EBFC0F233B727F23EF
:10155000BB72FFF72BFE7862796A18480CF078F8B6
:101560007B6A9BB2BB82FFF713FE3862396A14486C
:101570000CF06EF83B6A9BB2FB8207F10803184639
:1015800009F0C6FE01F006FD002101200BF0EEF887
:101590000EE0BB691B78012B06D10A480CF058F805
:1015A0007B6800221A7003E007480CF051F800BF76
:1015B0002837BD4680BD00BF24F9000840F9000867
:1015C00064F9000884F90008B8F9000880B500AF94
:1015D000002002F0E5FF012002F0E2FF022002F00D
:1015E000DFFF012003F016F800BF80BD80B500AF1B
:1015F0000121002003F042F80121012003F03EF810
:101600000121022003F03AF800BF80BD80B500AF91
:101610004FF0FF300BF0DAF800BF80BD80B400AFB0
:1016200000BFBD465DF8047B704780B582B000AF57
:101630007860002140200BF0E7F900BF0837BD4675
:1016400080BD80B582B000AF786002200BF048FA10
:1016500000BF0837BD4680BD80B582B000AF78605E
:1016600002200BF05DFA00BF0837BD4680BD80B593
:1016700082B000AF0346FB80FB88402B0CD0402B90
:101680000DDC012B02D0102B03D008E001F0A0FFED
:1016900006E001F0A3FF03E001F0A8FF00E000BFB7
:1016A00000BF0837BD4680BD80B500AF034B0122A7
:1016B0000349002000F010FF00BF80BDC5160008E0
:1016C0008C02002080B500AF154B1B88FF2B1ED865
:1016D000144B1B780D2B0FD1134914480BF0B8FF96
:1016E00000F028F80E4B00221A804FF4807200217F
:1016F0000D480CF0FDF80AE0094B1B885A1C91B20A
:10170000074A11801A46074B1978074B9954084B22
:1017100001220449002000F0DFFE00BF80BD00BFB1
:10172000940300208C02002094020020ECF90008B1
:10173000C516000880B500AF1C491D48FEF720FD06
:101740000346002B0AD11B480BF0F2FF1A4B4FF057
:10175000B0521A60184803F007FE25E017491448F4
:10176000FEF70EFD0346002B09D115480BF0E0FFF4
:10177000114B144A1A60104803F0F6FD14E01249A8
:101780000B48FEF7FDFC0346002B09D10F480BF078
:10179000CFFF094B0E4A1A60074803F0E5FD03E04E
:1017A00003490C480BF054FF00BF80BDFCF9000852
:1017B0009402002000FA00088402002008FA0008C1
:1017C0000CFA00080400001614FA000818FA0008C1
:1017D0000600001620FA000880B483B000AF7860DD
:1017E000064BD3F8802005497B681343C1F880304D
:1017F00000BF0C37BD465DF8047B704700080058F9
:1018000080B483B000AF7860054B1A6804497B68E8
:1018100013430B6000BF0C37BD465DF8047B704777
:101820000008005880B483B000AF0D4B9B6A9BB298
:101830007B600B4B9B6A9BB23B6005E03B687B6027
:10184000074B9B6A9BB23B607A683B689A42F5D132
:101850003B6818460C37BD465DF8047B704700BFF7
:101860000028004080B485B000AF03460A46FB71F3
:101870001346BB71BA791D4913465B001344DB0064
:101880000B4415331B78FB73FB7B062B09D0FA7BCB
:10189000164913465B001344DB000B441433FA79FA
:1018A0001A70FA79114913465B001344DB000B44AC
:1018B0001533FA7B1A70FA790C4913465B0013440E
:1018C000DB000B441433BA791A70BA79074913460E
:1018D0005B001344DB000B441533FA791A7000BF28
:1018E0001437BD465DF8047B704700BF98030020A5
:1018F00080B485B000AF03460A46FB711346BB7146
:10190000294B1B78DBB2BA799A4232D0BA7927498F
:1019100013465B001344DB000B4414331B78FB734A
:10192000FA7B224913465B001344DB000B4415335A
:10193000FA791A70FA791D4913465B001344DB00EB
:101940000B441533BA791A70FA79184913465B00BB
:101950001344DB000B441433FA7B1A70BA79134931
:1019600013465B001344DB000B441433FA791A70FE
:1019700014E0FA790D4913465B001344DB000B4475
:101980001533BA791A70BA79084913465B001344C3
:10199000DB000B441433FA791A7000BF1437BD46CC
:1019A0005DF8047B704700BF2804002098030020E6
:1019B00080B584B000AF0346FB714E4B1B78DBB2A1
:1019C000062B18D14B4B1B78DAB24B4B1A70494A95
:1019D000FB791370FA79494913465B001344DB0025
:1019E0000B44153306221A70454B4FF0FF321A6034
:1019F0000023FB8178E000F009F90346FB81FA79C6
:101A00003E4913465B001344DB000B44083319685E
:101A1000FB89FA791944394813465B001344DB000B
:101A2000034408331960FA79344913465B001344C0
:101A3000DB000B4408331B68BB602E4B1B78DBB20A
:101A400019462E4A0B465B000B44DB001344083357
:101A50001B68BA689A4237D3264B1B787B737A7B14
:101A6000264913465B001344DB000B4415331B78F7
:101A70003B7313E07A7B214913465B001344DB0080
:101A80000B4415331B787B737A7B1C4913465B0030
:101A90001344DB000B4415331B783B733B7B062B55
:101AA0000BD03A7B154913465B001344DB000B4413
:101AB00008331B68BA689A42DCD27A7BFB791146FC
:101AC0001846FFF7CFFE0FE00A4B1B78DAB2FB791E
:101AD00011461846FFF70CFF064B1B78DAB2064B8F
:101AE0001A70044AFB791370FB8918461037BD46FB
:101AF00080BD00BF28040020290400209803002096
:101B00002C04002080B485B000AF03460A46FB7168
:101B10001346BB71394B1B78DBB2FA799A4211D16B
:101B2000364B1B78DAB2364B1A70FA7935491346C0
:101B30005B001344DB000B4415331B78DAB22F4BE8
:101B40001A703EE0FA792F4913465B001344DB001C
:101B50000B4414331B78FB73FA792A4913465B0054
:101B60001344DB000B4415331B78BB73F979FA7B04
:101B700024480B465B000B44DB00034415331B7801
:101B8000D8B2204913465B001344DB000B441533E5
:101B900002461A70BB7B062B13D0F979BA7B194821
:101BA0000B465B000B44DB00034414331B78D8B2B4
:101BB000144913465B001344DB000B441433024604
:101BC0001A70FA790F4913465B001344DB000B448B
:101BD0000C3301221A70094B1B78DBB2062B07D19C
:101BE000BB79002B04D1084B4FF0FF321A6000BFC5
:101BF00000BF1437BD465DF8047B70472804002001
:101C000029040020980300202C04002080B582B015
:101C100000AF1A4B1B68B3F1FF3F26D0FFF702FE5F
:101C20007860164B1B687A689A4205D8134B1A687D
:101C30007B68D31A7B600AE0114B1B881A467B68CD
:101C4000D31A3B600D4B1B683A6813447B600D4B05
:101C50001B781A467B6802FB03F37B600A4B1B78F8
:101C60001A467B68D3407B6001E000237B607B6881
:101C70009BB218460837BD4680BD00BF2C0400202B
:101C800034040020320400203104002080B582B0EA
:101C900000AF0346FB80FB88002B08D1FFF7C2FD95
:101CA0000346214A1360032003F00FF839E0FB8854
:101CB000012B03D81D4B1B78012B02D0FB88013B65
:101CC000FB8000BF1A4B1B68DB6803F00403002B8A
:101CD000F8D0174B1B68DB68DAB2154B1B6862F44F
:101CE0009062DA60134B4FF40022DA60032002F0B6
:101CF000FAFF114B5B691B0C1B04FA880E49134356
:101D00004B61FFF78FFD0346074A1360084B1B68C2
:101D10009A68074B1B6842F480629A60AFF30080B8
:101D200000BF0837BD4680BD2C04002031040020D0
:101D300090040020000800580028004080B584B0BE
:101D400000AF454B9B6803F48063B3F5806F07D108
:101D500000BF424B1B68DB6803F00403002BF8D183
:101D60003E4B1B689A683D4B1B6822F480629A6068
:101D70003B4B1B78FB73FA7B3A4913465B001344D9
:101D8000DB000B4408331B68BB60FFF73FFF0346D3
:101D9000FB80FB88BA689A4205D20023BB81324B94
:101DA00001221A704DE0FB88304A128892B2134427
:101DB0001A46BB68934206D92C4B1B88BB812A4B21
:101DC00000221A703DE0BB689AB2FB88D31ABB812F
:101DD000254B01221A7034E0FA7B224913465B003E
:101DE0001344DB000B4408331A68FB889A420AD27A
:101DF000FA7B1C4913465B001344DB000B44083399
:101E000000221A6013E0FA7B164913465B00134464
:101E1000DB000B4408331968FB88FA7BC91A1148A8
:101E200013465B001344DB00034408331960FA7B5C
:101E30000C4913465B001344DB000B4415331B783D
:101E4000FB73FB7B062BC7D1BB891846FFF71EFF30
:101E500000BF1037BD4680BD002800409004002020
:101E600028040020980300203004002036040020BD
:101E700080B58AB000AFEFF310837B617B697B6232
:101E800072B600BF594B1B68CA225A62574B1B6877
:101E900053225A62554B1B689A68544B1B6822F4B4
:101EA00080629A60524B1B7887F8233097F8232082
:101EB000504913465B001344DB000B440C331B7882
:101EC000DBB2022B6ED197F823204A4913465B0000
:101ED0001344DB000B441B68FB6197F82320454942
:101EE00013465B001344DB000B4410331B68BB61DB
:101EF000414B1B78DBB2002B4CD097F823203D4997
:101F000013465B001344DB000B440D331B78DBB23C
:101F1000012B24D197F8233001211846FFF7F2FD59
:101F20007B6A3B613B6983F3108800BF97F82320ED
:101F3000304913465B001344DB000B4404331A683A
:101F400097F823301146184600F032FA274B1B68E9
:101F5000CA225A62254B1B6853225A6212E07B6ADE
:101F6000FB60FB6883F3108800BF97F823301846A6
:101F700000F09AF91D4B1B68CA225A621B4B1B6862
:101F800053225A6297F82330FA691946B86900F06B
:101F900095FA22E0FFF7D2FE7B6ABB60BB6883F351
:101FA00010881AE000BF114B1B68DB6803F00403C4
:101FB000002BF8D00D4B1B68DB68DAB20B4B1B68AB
:101FC00062F49062DA600D4B4FF40022DA607B6AB3
:101FD0007B607B6883F3108800BF044B1B68FF2283
:101FE0005A6200BF2837BD4680BD00BF9004002064
:101FF0002804002098030020300400200008005826
:1020000080B588B000AF03463960FB715E4B1B683A
:10201000CA225A625C4B1B6853225A625B4B9B6814
:102020005A4A43F020039360584B9B68DBB203F09D
:102030000703DBB2C3F10403DAB2554B1A70534BFA
:102040001B6903F4FE034FF4FE023A613A6992FA07
:10205000A2F2FA60FA687A617A69002A01D1202234
:1020600003E07A69B2FA82F2D2B2D340DBB2013332
:10207000DAB2484B1A70454B1B699BB2C3F30E038F
:102080009BB201339AB2444B1A80434B1B88013BED
:10209000404A127802FB03F3A3F5A0733C4A12787E
:1020A000D340BB61BB694FF6FE72934204D93B4BF0
:1020B0004FF6FF721A8003E0BB699AB2374B1A8061
:1020C0004FF40020FFF79CFB4FF40020FFF784FB48
:1020D000FB79002B3DD1324B01221A70314B4FF06E
:1020E000FF321A600023FB770CE0FA7F2E4913467B
:1020F0005B001344DB000B440C3300221A70FB7F9F
:102100000133FB77FB7F052BEFD9284B06221A7092
:102110001D4B1B689A681C4B1B6822F480629A60F6
:10212000194B1B68DB68DAB2174B1B6862F49062CC
:10213000DA601F4B4FF40022DA60032002F0D3FD77
:10214000114B1B689A68104B1B6842F480429A60DE
:1021500009E00D4B1B68DB6803F48063002B02D0A1
:10216000032002F0B2FD084B1B68FF225A620022D6
:102170000321032002F067FD032002F07EFD00BF73
:102180002037BD4680BD00BF9004002000280040DD
:1021900031040020320400203404002036040020E2
:1021A000300400202C040020980300202804002084
:1021B0000008005880B48BB000AFF860B9603B6095
:1021C0001346FB71002387F82630EFF31083FB6181
:1021D000FB693B6272B600BF04E097F8263001331A
:1021E00087F8263097F82630052B0CD897F826204C
:1021F0002C4913465B001344DB000B440C331B7863
:10220000DBB2002BE9D197F82630062B38D097F8AF
:102210002620244913465B001344DB000B440C3397
:1022200001221A703B6ABB61BB6983F3108800BF4F
:1022300097F826201B4913465B001344DB000B4430
:102240001033FA681A6097F82620164913465B0087
:102250001344DB000B440D33FA791A7097F82620EB
:10226000104913465B001344DB000B443A681A60C4
:10227000BB6897F826201A70002387F8273008E0FB
:102280003B6A7B617B6983F3108800BF012387F879
:10229000273097F8273018462C37BD465DF8047B69
:1022A000704700BF9803002080B586B000AF03469A
:1022B000FB71EFF31083FB60FB687B6172B600BFBC
:1022C000032002F0E8FC344B1B68CA225A62324BEE
:1022D0001B6853225A62FA79304913465B00134453
:1022E000DB000B440C331B78DBB2022B42D1FB79B1
:1022F00000211846FFF706FC294B1B78FB74FB7C7A
:10230000062B2FD1274B9B6803F48063B3F5806FB6
:1023100007D100BF204B1B68DB6803F00403002BD0
:10232000F8D11D4B1B689A681B4B1B6822F4806216
:102330009A6000BF184B1B68DB6803F00403002B96
:10234000F8D0154B1B68DB68DAB2134B1B6862F4DC
:102350009062DA60144B4FF40022DA60032002F03E
:10236000C2FC07E0114B1B78DBB2FA7C9A4201D029
:10237000FFF7E4FC084B1B68FF225A62032002F0BF
:102380007CFC7B69BB60BB6883F3108800BF00BF27
:102390001837BD4680BD00BF900400209803002080
:1023A00028040020002800400008005829040020CC
:1023B00080B586B000AF03463960FB71FA793B49BE
:1023C00013465B001344DB000B440C331B78DBB279
:1023D000022B03D1FB791846FFF766FFEFF310835A
:1023E000FB60FB687B6172B600BF032002F053FC08
:1023F0002F4B1B68CA225A622D4B1B6853225A620C
:10240000FA792A4913465B001344DB000B440C3372
:1024100002221A70FA79254913465B001344DB0047
:102420000B4408333A681A60FA79204913465B0076
:102430001344DB000B4404333A681A60FB791846F6
:10244000FFF7B6FA03467B821A4B1B787B741A4B54
:102450001B78DBB27A7C9A4202D0FFF76FFC13E064
:10246000FA79124913465B001344DB000B4408332E
:1024700019687B8AFA79C91A0C4813465B00134421
:10248000DB00034408331960094B1B68FF225A62C2
:10249000032002F0F2FB7B69BB60BB6883F310880A
:1024A00000BF00BF1837BD4680BD00BF98030020A5
:1024B00090040020280400202904002080B584B066
:1024C00000AFF8600B467A60FB727B68984700BFEC
:1024D0001037BD4680BD000080B584B000AFB96044
:1024E0007B600346FB731346BB81FB7B002B0CD147
:1024F000084A7B681360084B084A1A60BB891A4671
:10250000B968054804F082FF00E000BF00BF103743
:10251000BD4680BD38040020B404002000380140CE
:1025200080B586B000AFB9607B600346FB7313468D
:10253000BB810023FB750023BB75FB7B002B0ED1F9
:10254000174A7B681360174B174A1A60BB891A46F3
:10255000B968144804F0A6FF0346FB7500E000BF0D
:10256000FB7D032B16D801A252F823F07D2500082D
:1025700083250008892500088F2500080023BB75E6
:1025800009E00123BB7506E00223BB7503E00323CA
:10259000BB7500E000BFBB7D18461837BD4680BD47
:1025A0003C040020B40400200038014080B582B013
:1025B00000AF78607B681B681A46094B9A4207D1C6
:1025C000084B1B68002B05D0064B1B68984701E0A1
:1025D00000BF00E000BF00BF0837BD4680BD00BFA0
:1025E000003801403804002080B582B000AF786028
:1025F0007B681B681A46094B9A4207D1084B1B6837
:10260000002B05D0064B1B68984701E000BF00E097
:1026100000BF00BF0837BD4680BD00BF0038014085
:102620003C04002080B483B000AF78604FF0B0432A
:10263000D3F8903023F018024FF0B0417B68134379
:10264000C1F8903000BF0C37BD465DF8047B704781
:1026500080B485B000AF78604FF0B0439A6C4FF013
:10266000B0417B6813438B644FF0B0439A6C7B6836
:102670001340FB60FB6800BF1437BD465DF8047B68
:10268000704780B485B000AF78604FF0B043DA6C2B
:102690004FF0B0417B681343CB644FF0B043DA6C2A
:1026A0007B681340FB60FB6800BF1437BD465DF8D4
:1026B000047B704780B483B000AF78607B68FF22F2
:1026C0005A6200BF0C37BD465DF8047B704780B48A
:1026D00083B000AF78607B68CA225A627B6853225D
:1026E0005A6200BF0C37BD465DF8047B704780B46A
:1026F00083B000AF786039607B689B6823F0070285
:102700003B681A437B689A6000BF0C37BD465DF892
:10271000047B704780B500AF02F0C8F8FEF784FD77
:1027200000F013F800F05DF800F07CF800F03EF9DE
:1027300000F02AF900F0A0F800F0D8F800F086F8D0
:10274000FEF780FDFEF762FFFCE780B598B000AFB2
:1027500007F11C034422002118460BF0C9F83B4640
:1027600000221A605A609A60DA601A615A619A61AE
:1027700003F05EF80020FFF755FF0723FB614FF4DD
:1027800080333B6201237B624FF48073BB62402342
:10279000FB6200237B6407F11C03184603F0B0FBC7
:1027A0000346002B01D000F00BF96F233B6002239E
:1027B0007B600023BB600023FB6000233B610023A0
:1027C0007B610023BB613B460121184603F0CEFE2E
:1027D0000346002B01D000F0F3F800BF6037BD4680
:1027E00080BD80B58CB000AF3B463022002118463A
:1027F0000BF07EF84FF440533B604FF480437B6214
:102800000223BB621023FB623B46184604F070FAB9
:102810000346002B01D000F0D3F800BF3037BD468F
:1028200080BD000080B500AF064B074A1A6005481E
:1028300002F078FF0346002B01D000F0C1F800BF82
:1028400080BD00BF40040020000C005880B500AFE0
:10285000074B084A1A60064B00225A60044804F0ED
:102860003DFB0346002B01D000F0AAF800BF80BD5D
:102870007C0400200010005880B500AF194B1A4AA4
:102880001A60184B00225A60164B0F229A60154BA3
:1028900047F6FF72DA60134B00221A61114B0022D7
:1028A0009A61104B00225A610E4804F04DFB03461A
:1028B000002B01D000F084F800220021094804F028
:1028C00043FC0346002B01D000F07AF80648FFF7DE
:1028D000FEFE00210448FFF70AFF0348FFF7EAFE67
:1028E00000BF80BD900400200028004080B500AFEC
:1028F000234B244A1A60224B4FF4E1325A60204B9A
:1029000000229A601E4B0022DA601D4B00221A61E1
:102910001B4B0C225A611A4B00229A61184B4FF440
:102920000042DA61164B00221A62154B00225A62ED
:10293000134B00229A62124804F018FD0346002B44
:1029400001D000F03DF800210D4806F088FD034657
:10295000002B01D000F034F80021094806F0BDFD3D
:102960000346002B01D000F02BF8054806F03EFD91
:102970000346002B01D000F023F800BF80BD00BF4C
:10298000B40400200038014080B500AF0420FFF7F8
:102990005FFE0120FFF75CFE00220F210E2002F0F7
:1029A00052F90E2002F069F900BF80BD80B500AF7A
:1029B0000420FFF766FE0120FFF763FE00BF80BD25
:1029C00080B400AF00BFBD465DF8047B704780B4A3
:1029D00083B000AF78604FF0B043D3F8903023F469
:1029E00040724FF0B0417B681343C1F8903000BF94
:1029F0000C37BD465DF8047B704780B400AF4FF0E4
:102A0000B043D3F890304FF0B04243F40043C2F8E3
:102A1000903000BFBD465DF8047B704780B485B040
:102A200000AF78604FF0B043DA6C4FF0B0417B6894
:102A30001343CB644FF0B043DA6C7B681340FB6008
:102A4000FB6800BF1437BD465DF8047B704780B457
:102A500085B000AF78604FF0B0431A6D4FF0B041D1
:102A60007B6813430B654FF0B0431A6D7B681340CE
:102A7000FB60FB6800BF1437BD465DF8047B704700
:102A800080B485B000AF78604FF0B0439A6D4FF0DE
:102A9000B0417B6813438B654FF0B0439A6D7B6800
:102AA0001340FB60FB6800BF1437BD465DF8047B34
:102AB000704780B485B000AF78604FF0B0431A6EB5
:102AC0004FF0B0417B6813430B664FF0B0431A6E72
:102AD0007B681340FB60FB6800BF1437BD465DF8A0
:102AE000047B704780B500AF4FF40020FFF7AFFFC5
:102AF000002200212E2002F0A6F82E2002F0BDF8C0
:102B000000BF80BD80B582B000AF78607B681B6875
:102B10000D4A934213D14FF48010FFF798FF002223
:102B200000212C2002F08FF82C2002F0A6F80022C1
:102B300000212D2002F087F82D2002F09EF800BF22
:102B40000837BD4680BD00BF000C005880B58EB070
:102B500000AF786007F108033022002118460AF020
:102B6000C7FE7B681B680D4A934213D14FF4007374
:102B7000BB604FF000433B6207F10803184604F0C6
:102B8000B7F80346002B01D0FFF71AFF4FF480205F
:102B9000FFF75DFF00BF3837BD4680BD001000580D
:102BA00080B58EB000AF786007F1080330220021B5
:102BB00018460AF09DFE7B681B68184A934228D18C
:102BC00002F036FE02F034FE4FF48070FFF7FFFE95
:102BD0004FF40063BB604FF48073BB6207F10803DE
:102BE000184604F085F80346002B01D0FFF7E8FEF5
:102BF000FFF703FF4FF48060FFF742FF0022002140
:102C0000032002F020F8032002F037F8786804F07F
:102C100057FB00BF3837BD4680BD00BF00280040CD
:102C200080B594B000AF786007F13C0300221A60D1
:102C30005A609A60DA601A6107F10C0330220021B1
:102C400018460AF055FE7B681B682F4A934257D1FD
:102C50000123FB6000233B6107F10C03184604F0DD
:102C600047F80346002B01D0FFF7AAFE4FF480403F
:102C7000FFF71FFF0120FFF7D1FE4FF4C063FB6396
:102C800002233B6401237B640323BB640723FB64AF
:102C900007F13C0319464FF0904002F087FB1B4BB5
:102CA0001B4A1A60194B0F225A60184B10229A6067
:102CB000164B0022DA60154B80221A61134B00225A
:102CC0005A61124B00229A61104B0022DA610F4BBD
:102CD00000221A620D4802F015F80346002B01D0BD
:102CE000FFF76EFE7B68094ADA67084A7B689362E1
:102CF00000220021242001F0A6FF242001F0BDFFC6
:102D000000BF5037BD4680BD003801404805002057
:102D10004400024080B400AF00BFFDE780B400AFC4
:102D200000BFFDE780B400AF00BFFDE780B400AF97
:102D300000BFFDE780B400AF00BFFDE780B400AF87
:102D400000BFBD465DF8047B704780B400AF00BF94
:102D5000BD465DF8047B704780B400AF00BFBD4640
:102D60005DF8047B704780B500AF01F0F9FD00BF4E
:102D700080BD80B500AFFFF77BF800BF80BD0000CD
:102D800080B500AF024802F082F900BF80BD00BFED
:102D90004805002080B500AF024804F003FC00BFE6
:102DA00080BD00BFB404002080B500AF01F0EEF993
:102DB00000BF80BD80B500AF01F01EFA00BF80BD2E
:102DC00080B500AF02F08AFC00BF80BD80B500AFC7
:102DD000012002F06BFC00BF80BD80B500AF102069
:102DE00002F064FC00BF80BD80B500AF402002F05F
:102DF0005DFC00BF80BD80B400AF01231846BD4616
:102E00005DF8047B704780B582B000AF78603960B0
:102E10000AF0C0FD034616221A604FF0FF33184631
:102E20000837BD4680BD80B582B000AF78604FF0F6
:102E3000FF317868FFF7E7FF00BFFDE780B586B098
:102E400000AFF860B9607A6000237B610AE0AFF3FD
:102E500000800146BB685A1CBA60CAB21A707B690E
:102E600001337B617A697B689A42F0DB7B681846A4
:102E70001837BD4680BD80B483B000AF78604FF096
:102E8000FF3318460C37BD465DF8047B704780B4AD
:102E900083B000AF786039603B684FF400525A60ED
:102EA000002318460C37BD465DF8047B704780B49C
:102EB00083B000AF7860012318460C37BD465DF83B
:102EC000047B704780B485B000AFF860B9607A6069
:102ED000002318461437BD465DF8047B7047000098
:102EE00080B586B000AF7860144A154BD31A7B6169
:102EF0007B693B61134B1B68002B02D1114B124ABB
:102F00001A60104B1A687B6813443A699A4207D2D8
:102F10000AF040FD03460C221A604FF0FF3309E02F
:102F2000084B1B68FB60074B1A687B681344054A13
:102F30001360FB6818461837BD4680BD003000207E
:102F400000100000A8050020E018002080B400AFA9
:102F5000034B1B681846BD465DF8047B704700BFF5
:102F60008075FF1F80B400AF034B1B68DBB21846AF
:102F7000BD465DF8047B70478475FF1F80B400AFC9
:102F8000034B1B681B0A1846BD465DF8047B70475F
:102F90008475FF1FB0B590B000AF922387F83F3023
:102FA0003F4B3C1D1D460FCD0FC40FCD0FC40FCDA1
:102FB0000FC495E8070003C4228000F01FFB012125
:102FC000022009F0D3FB374A0021042009F0FAFC63
:102FD0003B1D184608F06EF9034687F83E3097F817
:102FE0003E30002B08D097F83E3019462E480AF0A4
:102FF0002FFBFFF7E5FC02E02C480AF029FB00F06C
:1030000013FB09F0B3F82A4B002283F87420284BF5
:103010004FF6FF729A81274A0021012009F0D2FC65
:10302000254A0021022009F0CDFC062007F06AFBAA
:10303000034687F83F3097F83F30002B06D097F8CB
:103040003F3019461D480AF003FB02E01C480AF015
:10305000FFFA1C4B00221A701B4B01221A7000F061
:103060002BFF1A4B00221A490020FFF7A3F8194B37
:10307000002219490020FFF79DF80D4B0022DA735A
:103080000B4B00229A73154B80221A80144BA022FE
:103090001A80012000F06AFC00BF4037BD46B0BD79
:1030A0001CFB0008CDAC000840FA000878FA0008C4
:1030B000B40500204D3B0008953C0008A0FA00082C
:1030C000E4FA00083406002035060020AD3B000875
:1030D00029060020BD3B00082A0600202C060020FF
:1030E0002E060020B0B592B004AF7860922387F826
:1030F00037307B6801333B633B6B1B78FF2B00F061
:103100002081FF2B00F32E82052B02D03E2B2ED0E8
:1031100028E23B6B02333B613B69B3F801309AB262
:10312000AC4B9B899A4214D1AA4B00229A81A94B9D
:10313000002283F87420A8480AF0FAFA3B69B3F831
:1031400001309BB219463B69DB781A46A3480AF066
:103150007FFA012000F00AFCA14B01221A709D4B5E
:103160009A899F4B5A809E4800F092FEFDE13B6B8E
:1031700002333B623B6A1B780C2B33D00C2B00F3E1
:10318000DE80012B6CD0032B40F0D9803B6A0133E9
:10319000BB6194480AF0CCFABB69B3F803309BB228
:1031A0001846FDF7A7F94FF000028F4BFDF70CFA18
:1031B00002460B4610461946BB69B3F805309BB270
:1031C0001C46BB69B3F807309BB21A4613469B00F6
:1031D00013445B000193009402460B4683480AF0B7
:1031E00037FAADE03B6A0133FB6181480AF030FAFF
:1031F000FB691B78002B03D17E480AF099FA02E0A4
:103200007D480AF095FA734B9B8907F10E0207F18E
:103210000F01184607F0EEFA034687F8373097F8A3
:103220003730002B03D075480AF012FA88E0744852
:103230000AF07EFAFB7B022B0AD1BB7B022B07D163
:10324000FB7B1946BB7B1A466E480AF001FA77E011
:10325000FB7B1946BB7B1A466A480AF0F9F96FE016
:103260003B6A01337B615B4B93F875301846FFF77F
:103270001BF87B69B3F801309BB2194662480AF02B
:10328000E7F97B699B7A18467B695B7A1C467B6908
:103290001B7A1D467B69DB791A467B699B79194647
:1032A0007B695B790293019100922B46224601468D
:1032B00056480AF0CDF97B69B3F80B309BB218463B
:1032C000FDF718F94FF00002474BFDF77DF9024674
:1032D0000B46104619467B69B3F80D309BB21C466D
:1032E0007B69B3F80F309BB21A4613469B00134418
:1032F0005B000193009402460B463C480AF0A8F993
:10330000344B93F87430042B04D1324B062283F8EB
:10331000742003E02F4B052283F874207B69B3F8F7
:1033200001309AB22B4B9A812D4B00221A70294BF7
:103330009A892B4B5A802A4800F0AAFD00E000BF72
:1033400013E13B6B0233FB62FB6A1B889BB240F6C6
:103350000E42934200F0FC8040F60E42934200F38E
:103360000381B3F5006F00F0E080B3F5006F00F368
:10337000FB80042B00F0E180042BC0F2F58040F2CA
:103380000A42934200F3F080B3F5806FC0F2EC8004
:10339000A3F580630A2B00F2E78001A252F823F024
:1033A000CD330008F5340008153400085334000804
:1033B000693500085B3400086935000833350008BA
:1033C0008F3400089F3400089734000810480AF032
:1033D000AFF9C6E0B405002058FB000884FB0008E4
:1033E00030060020C0FB00080000F43FF4FB00089A
:1033F00060FC000890FC00089CFC0008A8FC000889
:10340000C8FC0008E8FC00080CFD000854FD00089A
:10341000A4FD000857480AF08BF9574BBB62574B85
:10342000BB62574B9B89B96A184606F019FB0346E5
:1034300087F8373097F83730002B06D097F83730B9
:10344000194650480AF004F98BE04F480AF070F929
:1034500087E04E480AF06CF983E04D480AF068F9BD
:10346000474B9B89184606F0A5FC034687F8373082
:1034700097F83730002B06D097F837301946454873
:103480000AF0E6F86DE044480AF052F969E0434872
:103490000AF04EF965E042480AF04AF961E0414815
:1034A0000AF046F9FB6A0233D3F8023019463E4867
:1034B0000AF0CEF8FB6A0233D3F8023019463B48D3
:1034C0000AF0C6F82E4B9B890121184606F0C6FC6F
:1034D000034687F8373097F83730002B06D097F837
:1034E0003730194632480AF0B3F83AE031480AF06A
:1034F0001FF936E0FB6A02337B622F480AF018F9A5
:103500007B6A9B78002B03D12C480AF011F908E064
:103510007B6A9B7819467B6ADB781A4628480AF052
:1035200097F80A200AF0A6F81BE0264B01221A7031
:1035300017E025480AF08CF813E0012001F06AF842
:103540000F4B93F876300A211846FEF731FF08E05A
:103550001E480AF07DF80A4B9B89184606F091FF39
:1035600000BF01E000BF00E000BF0123184638376C
:10357000BD46B0BDD4FD000807B2010040E2010025
:10358000B4050020FCFD000830FE000858FE0008CD
:1035900084FE0008A8FE0008D8FE000800FF00080E
:1035A0002CFF00085CFF000890FF0008ACFF00083B
:1035B000C4FF0008140001085C000108880001082D
:1035C000A000010835060020DC0001080401010804
:1035D00080B500AF00F09CFC00BF80BD80B500AF9F
:1035E0000021022009F010FA00BF80BD80B400AFB6
:1035F00000BFBD465DF8047B7047000080B582B017
:1036000000AF064B3B60064B7B603B4619460548C6
:1036100007F040FB00BF0837BD4680BD28000320EF
:103620003D3D0008053D0008B0B58CB006AF002355
:103630003B809223FB75AF480AF07AF807F0B6F8A2
:103640000346FB75FB7D002B05D0FB7D1946AA4880
:1036500009F0FEFF02E0A9480AF06AF800F032FA29
:1036600038613A6906212E2006F060FF0346FB759B
:10367000FB7D002B05D0FB7D1946A14809F0E8FF32
:1036800021E0A0480AF054F83B6905331B7818463E
:103690003B6904331B781C463B6903331B781D468A
:1036A0003B6902331B781A463B6901331B78194684
:1036B0003B691B780293019100922B4622460146FA
:1036C000914809F0C5FF3B6905331A788F4B1A7290
:1036D0003B6904331A788D4B5A723B6903331A786D
:1036E0008A4B9A723B6902331A78884BDA723B69CB
:1036F00001331A78854B1A733B691A78834B5A73D6
:10370000834A1021182006F011FF0346FB75FB7D4C
:10371000002B05D0FB7D19467E4809F099FF02E099
:103720007D480AF005F87D4A1021082006F0FEFECB
:103730000346FB75FB7D002B05D0FB7D19467848C1
:1037400009F086FF02E0774809F0F2FF1821012016
:1037500006F071FF0346FB75FB7D002B05D0FB7D5A
:103760001946714809F074FF02E0704809F0E0FF63
:1037700006F0DBFB0346FB75FB7D002B05D0FB7DD4
:1037800019466B4809F064FF02E06A4809F0D0FF6F
:103790000023FB73FB7B43F00103FB73FB7B002BDC
:1037A0002BD0654BBB60BA1DF87BBB1C01933B1D46
:1037B000009313460722002106F0B9F90346FB7572
:1037C000FB7D002B05D0FB7D19465C4809F040FFCE
:1037D00002E05B4809F0ACFFFC88BD88B868FCF7E4
:1037E0002FFD0346DAB2BB68009313460022294638
:1037F000204606F09DFD0346FB75F88879883B4618
:1038000000930223002206F093FD0346FB7502227B
:103810000221002007F06CF80346FB75FB7D002BAE
:1038200005D0FB7D1946474809F012FF02E04648E3
:1038300009F07EFF454B01221A70444B1B78184655
:1038400005F0F6FF0346FB75FB7D002B05D0FB7DE5
:1038500019463F4809F0FCFE02E03E4809F068FFC7
:103860003A4B01225A70394B0822DA70374B10223A
:103870001A71364B01229A70344B9878334B597831
:10388000324BDB78314A12790024049400240394EB
:1038900001240294019200930023012206F01CF8F7
:1038A0000346FB75FB7D002B05D0FB7D19462A489E
:1038B00009F0CEFE02E0294809F03AFF234B9B783D
:1038C000002B0FD006F052FA0346FB75FB7D002B50
:1038D00005D0FB7D1946224809F0BAFE02E02148D6
:1038E00009F026FF204809F0B3FE00BF1837BD4697
:1038F000B0BD00BF2C010108580101088801010872
:10390000A80101080C020108600201081000002053
:10391000780C01089C020108F4020108880C0108D7
:103920003C03010894030108DC0301081C0401089E
:103930004C04010880040108A4040108AC04010837
:10394000DC040108FC04010838050108B405002066
:1039500064050108A4050108D40501082006010832
:103960005C0601089C060108CC06010880B58CB0F5
:1039700008AF0346FB719223FB72FB79012B06D142
:10398000414B1B88FB81414B1B88BB8105E04FF4F9
:10399000C863FB814FF47A63BB813D4B93F875306C
:1039A0001846FEF781FCFB79022B19D1384B93F8AE
:1039B0007430012B04D0364B93F87430022B0FD1A6
:1039C00005F018FE0346FB72FB7A002B05D0FB7A4C
:1039D0001946304809F03CFE02E02F4809F0A8FEE5
:1039E0002B4AFB7982F87430294B9B7BBA89F98981
:1039F0000020069000200590284804900393284B4F
:103A0000029308230193002300930023002005F074
:103A100015FE0346FB72FB7A002B05D0FB7A194694
:103A2000204809F015FE02E01F4809F081FE1F49F9
:103A30000E2006F029F90346FB72FB7A002B0ED00C
:103A4000FB79012B05D1FB7A1946194809F000FED4
:103A500017E0FB7A1946174809F0FAFD11E0FB79E7
:103A6000012B0AD1144809F0F3FD094B93F8753086
:103A700012491846FEF79CFC03E0114809F0E8FDE6
:103A800000BF1037BD4680BD2C0600202E0600204A
:103A9000B4050020F806010844070108C30500200A
:103AA000980C01088C070108C407010810000020C9
:103AB000EC070108200801085808010846E0010049
:103AC0008008010880B586B000AFFFF73FFA386183
:103AD0003B69B3F1FF3F23D0FFF750FAB860FFF71F
:103AE00041FA78603B69DAB2164B1A703B691B0ADF
:103AF000DAB2144B5A707B68DAB2124B9A70BB6818
:103B0000DAB2104BDA70BB681B0ADAB20D4B1A71CD
:103B1000BB681B0CDAB20B4B5A710A4B7B610BE092
:103B2000002007F073FAF860FB68002B02D0FB68F6
:103B30007B6101E0044B7B617B6918461837BD4609
:103B400080BD00BFAC050020700C010880B582B0BC
:103B500000AF012000F078FD104B93F87430052B76
:103B600017D09223FB7105F045FD0346FB710B4B0B
:103B7000002283F87420FB79002B03D0084809F059
:103B800067FD06E0074809F063FD074809F060FD9E
:103B900000BF00BF0837BD4680BD00BFB405002090
:103BA000B0080108D4080108DC08010880B500AF9E
:103BB0000021012008F028FF00BF80BD80B500AFC4
:103BC000012000F041FD00BF80BD000090B589B02C
:103BD00002AF0346FB80294B1B78012B49D1274BB1
:103BE00000221A70264B1B780133002B03F00103CF
:103BF000B8BF5B42DAB2224B1A70214B1B78214AC4
:103C00009B00134493ED007AF7EE046AC7EE267A20
:103C1000FDEEE77A17EE903AFB82194B1B78194AB2
:103C20009B00134493ED007AF7EE046AC7EE267A00
:103C3000FDEEE77A17EE903ABB8200237B824FF4C9
:103C4000FA733B82104B98897C8ABA8AF98A3B8A3C
:103C50000093234606F0C9FE0346FB73FB7B002B53
:103C600003D00A4809F0F4FC03E0094809F0F0FC2D
:103C700000BF00BF1C37BD4690BD00BF3506002009
:103C80003406002008000020B4050020F8080108D0
:103C90002009010880B500AF084B93F87430012B60
:103CA0000AD0064B93F87430002B05D0034B9B8948
:103CB0001846FFF78BFF00BF00BF80BDB405002092
:103CC00080B582B000AF78600021042008F09CFE2F
:103CD00000BF0837BD4680BD80B582B000AF7860B8
:103CE000012008F0FDFE00BF0837BD4680BD80B54D
:103CF00082B000AF7860012008F012FF00BF0837E3
:103D0000BD4680BD80B584B000AF78607B68FB6045
:103D1000FB685B680833184608F07AFA0346FB72C2
:103D2000FB7A002B03D0FB6801221A7003E0FB68CA
:103D300000221A7000BF1037BD4680BD80B584B028
:103D400000AF0346FB71FB79002B02D0012B06D09C
:103D50000BE03F23FB60F86808F082FE05E03F239C
:103D6000FB60F86808F09CFE00BF00BF1037BD463E
:103D700080BD000080B582B000AF78607B681B78A2
:103D8000032B1AD0032B6BDC002B02D0012B0AD0A3
:103D900066E0374B01221A70364809F0C9FC3648F4
:103DA00009F056FC5FE0324B00221A70334809F0EC
:103DB000BFFC314809F04CFC55E07B685B681B7820
:103DC000002B23D17B685B6801331B78012B0BD15F
:103DD000002000F01FFC2A4809F0AAFC264809F040
:103DE00037FC234B01229A707B685B6801331B7898
:103DF000002B0BD1002000F027FC224809F098FC92
:103E00001D4809F025FC1A4B00229A707B685B68FC
:103E10001B78012B26D17B685B6801331B78012B53
:103E20000BD1002000F0F6FB174809F081FC124886
:103E300009F00EFC0E4B01229A707B685B6801331F
:103E40001B78002B0ED1002000F0FEFB0F4809F07C
:103E50006FFC094809F0FCFB054B00229A7001E059
:103E600000BF00E000BF00BF0837BD4680BD00BFF7
:103E70003806002050090108840901088809010852
:103E8000BC090108E40901080C0A0108340A010808
:103E900080B582B000AF78607B681B78002B05D0BE
:103EA000012B00D003E000F019F800E000BF00BFD4
:103EB0000837BD4680BD000080B500AF054A00212F
:103EC000082008F07FFD044B00221A7000F006F86D
:103ED00000BF80BD213F00083806002080B500AF3C
:103EE000002000F0B1FB084809F022FC074B01223A
:103EF0005A70064B00229A70044B0122DA70034B71
:103F000000221A7100BF80BD5C0A0108380600203B
:103F100080B500AF0021082008F076FD00BF80BD0D
:103F200080B500AF0F4B1B79002B03D10D4B012245
:103F30001A7102E00B4B00221A710A4B1B78002BFE
:103F40000BD0094809F084FB084809F081FB0849B7
:103F50004FF6426007F08CF903E0064809F078FB61
:103F600000BF80BD380600206C0A010884090108E2
:103F70003B060020AC0A010880B400AF054BDB68AB
:103F8000044A43F40043D36000BFBD465DF8047BA0
:103F9000704700BF0004005880B483B000AF786061
:103FA000064BD3F8D42005497B681343C1F8D430BD
:103FB00000BF0C37BD465DF8047B70470008005811
:103FC00080B483B000AF7860054B1A6A04497B68FF
:103FD00013430B6200BF0C37BD465DF8047B70478E
:103FE0000008005880B485B000AF78604FF0B0434F
:103FF0001A6D4FF0B0417B6813430B654FF0B0432F
:104000001A6D7B681340FB60FB6800BF1437BD4628
:104010005DF8047B704780B485B000AF78604FF0E6
:10402000B043D3F850214FF0B0417B681343C1F83F
:1040300050314FF0B043D3F850217B681340FB6000
:10404000FB6800BF1437BD465DF8047B704780B441
:1040500083B000AF78607B681B6843F480327B6874
:104060001A6000BF0C37BD465DF8047B704780B412
:1040700083B000AF78607B681B6843F001027B6807
:104080001A6000BF0C37BD465DF8047B704780B4F2
:1040900083B000AF786039607B685A683B681B0466
:1040A000DB431A407B685A6000BF0C37BD465DF8A1
:1040B000047B704780B483B000AF786039607B6860
:1040C0005A683B681B041A437B685A6000BF0C3770
:1040D000BD465DF8047B704780B483B000AF786064
:1040E00039607B685A683B68DB431A407B685A60DA
:1040F00000BF0C37BD465DF8047B704780B483B0C9
:1041000000AF786039607B683A689A6000BF0C370E
:10411000BD465DF8047B704780B483B000AF786023
:1041200039603B681A047B689A6000BF0C37BD4653
:104130005DF8047B704780B483B000AF786039606D
:104140007B68DA683B6813403A689A4201D10123E0
:1041500000E0002318460C37BD465DF8047B70472D
:1041600080B483B000AF786039607B68DA693B68FF
:1041700013403A689A4201D1012300E00023184617
:104180000C37BD465DF8047B7047000080B500AF7A
:1041900002211848FFF7E4FF0346002B08D0154B17
:1041A0005B6803F00203002B02D100F025F91EE04A
:1041B00001211048FFF7D4FF0346002B08D00D4B18
:1041C0005B6803F00103002B02D100F099F80EE0C8
:1041D00008210848FFF7C4FF0346002B08D0054B11
:1041E0005B6803F00803002B02D100F07DF900BFEB
:1041F00000BF80BD000C005880B500AF02211848F8
:10420000FFF799FF0346002B08D1154B5B6803F4B9
:104210000033002B02D100F0D3F81EE00821104833
:10422000FFF789FF0346002B08D10D4B5B6803F4B1
:104230000023002B02D100F019F90EE020210848DC
:10424000FFF779FF0346002B08D1054B5B6803F4A9
:104250000013002B02D100F05FF800BF00BF80BD4B
:10426000000C005880B500AF4FF48010FFF7D3FE6C
:104270004FF40070FFF7A4FE4FF40070FFF78CFEC0
:1042800040BF20BFFFF778FE00BF80BD80B500AF04
:104290004FF48010FFF7A6FE0648FFF7E8FE05483A
:1042A000FFF7D5FE2C2000F0E8FC2D2000F0E5FC07
:1042B00000BF80BD000C005880B584B000AFEFF3A4
:1042C00010837B607B68FB6072B600BF01210648EB
:1042D000FFF702FFFB68BB60BB6883F3108800BF79
:1042E00000BF1037BD4680BD000C005880B500AF40
:1042F00001210248FFF710FF00BF80BD000C0058ED
:1043000080B500AF08F068F801210248FFF7F6FE1B
:1043100000BF80BD000C005880B584B000AFEFF343
:1043200010837B607B68FB6072B600BF202107486A
:10433000FFF7C0FEFB68BB60BB6883F3108800BF5B
:1043400008F07AF800BF1037BD4680BD000C005859
:1043500080B584B000AFEFF310837B607B68FB60B7
:1043600072B600BF02210648FFF7B6FEFB68BB60CD
:10437000BB6883F3108800BF00BF1037BD4680BD07
:10438000000C005880B584B000AF02210B48FFF745
:10439000C3FEEFF310837B607B68FB6072B600BFE7
:1043A00002210648FFF773FEFB68BB60BB6883F31E
:1043B000108800BF00BF1037BD4680BD000C0058FC
:1043C00080B584B000AFEFF310837B607B68FB6047
:1043D00072B600BF02210748FFF76CFEFB68BB60A6
:1043E000BB6883F3108800BF08F076F800BF103771
:1043F000BD4680BD000C005880B500AF08F082F8C3
:1044000002210248FFF77AFE00BF80BD000C005871
:1044100080B586B000AF786008211248FFF78BFEA8
:104420000346002B13D0104A7B681360EFF3108310
:10443000FB60FB687B6172B600BF08210948FFF78B
:1044400026FE7B693B613B6983F3108805E07B684E
:10445000984708210348FFF75FFE00BF1837BD46A5
:1044600080BD00BF000C00584006002080B584B01D
:1044700000AFEFF310837B607B68FB6072B600BF18
:1044800008210A48FFF716FEFB68BB60BB6883F390
:10449000108800BF064B1B68984708210348FFF7A8
:1044A0003BFE00BF1037BD4680BD00BF000C00586A
:1044B0004006002080B584B000AFEFF310837B602E
:1044C0007B68FB6072B600BF08210648FFF704FE58
:1044D000FB68BB60BB6883F3108800BF00BF103768
:1044E000BD4680BD000C005880B500AF08F0B2F8A2
:1044F00008210248FFF702FE00BF80BD000C0058F3
:10450000D458C4500433C4188C42F9D370470360A4
:1045100004308842FBD370470C48854600F054F9BC
:104520000B480C490C4A0023FFF7EDFF0B480C49E0
:104530000023FFF7EEFF0B480B490023FFF7E9FFCD
:1045400009F02EFAFEF7E6F8FEE700000030002042
:10455000080000202C020020081101086802002039
:10456000E0180020E4010320670A0320FEE780B47E
:1045700085B000AF78604FF0B043DA6C4FF0B041D7
:104580007B681343CB644FF0B043DA6C7B68134015
:10459000FB60FB6800BF1437BD465DF8047B7047C5
:1045A00080B588B000AF0346FB7107F10C03002211
:1045B0001A605A609A60DA601A610220FFF7D7FF2A
:1045C000FB79124A32F81330FB6001233B61002370
:1045D0007B610223BB61FB790D4A52F8233007F15E
:1045E0000C021146184600F0E1FEFB79084A52F829
:1045F0002300FB79054A32F813300022194601F0F6
:104600003DF8002318462037BD4680BDA00C0108A8
:104610002000002080B582B000AF0346FB71FB791B
:10462000074A52F82300FB79064A32F81330012278
:10463000194601F023F8002318460837BD4680BD0F
:1046400020000020A00C010880B582B000AF034616
:10465000FB71FB79074A52F82300FB79064A32F8CE
:1046600013300022194601F009F8002318460837D4
:10467000BD4680BD20000020A00C010880B588B098
:1046800000AF03460A46FB711346BB7107F10C03EA
:1046900000221A605A609A60DA601A61FB79002B76
:1046A00003D10120FFF763FF0CE0FB79012B03D15D
:1046B0001020FFF75CFF05E0FB79022B02D10120FF
:1046C000FFF755FFFB79294A32F81330FB600123CD
:1046D0007B610223BB61BB79002B0CD100233B61C2
:1046E000FB79234A52F8233007F10C021146184691
:1046F00000F05CFE35E04FF404133B61FB791C4A8B
:1047000052F8233007F10C021146184600F04EFE15
:10471000FB79DB00174A1A44FB79174951F823301B
:104720001946104600F00CFEFB79DB00114A981880
:10473000FB79124A52F823301A46002100F0E6FDB8
:10474000FB790F4AD056FB790E4A52F823300022EB
:10475000194600F078FAFB79094AD356184600F05A
:104760008CFA002318462037BD4680BDA80C0108EE
:104770002C00002044060020B40C01083800002062
:10478000B00C01084400002080B483B000AF0346A1
:10479000FB7100BF0C37BD465DF8047B704780B5E8
:1047A00000AF0020FFF7F0FF00BF80BD80B500AF75
:1047B0000120FFF7E9FF00BF80BD80B500AF0220F8
:1047C000FFF7E2FF00BF80BD80B400AF244B0022A2
:1047D0009A60234BD3F88830214A43F47003C2F81F
:1047E00088304FF0B0431B684FF0B04243F00103F4
:1047F00013604FF0B0434FF4E0229A604FF0B043A3
:104800001A684FF0B041174B13400B604FF0B043A4
:10481000D3F894304FF0B04223F00503C2F894303F
:104820004FF0B043D3F898304FF0B04223F001037B
:10483000C2F898304FF0B0430B4ADA604FF0B04303
:104840001B684FF0B04223F4802313604FF0B04355
:1048500000229A6100BFBD465DF8047B704700BF2F
:1048600000ED00E0FBFEF6FA0010042280B400AF79
:10487000054B5B68044A43F00103536000BFBD462B
:104880005DF8047B704700BF002004E080B400AFF7
:10489000054B5B68044A43F00203536000BFBD460A
:1048A0005DF8047B704700BF002004E080B582B053
:1048B00000AF0023FB710C4B1B680B4A43F4807361
:1048C0001360032000F0B4F9002000F00FF8034655
:1048D000002B02D00123FB7101E0FEF703F9FB7905
:1048E00018460837BD4680BD0040005880B584B0EA
:1048F00000AF78600023FB73174B1B78002B24D08C
:1049000001F0E0FF0246144B1B7819464FF47A730E
:10491000B3FBF1F3B2FBF3F3184600F0CAF9034618
:10492000002B0FD17B680F2B09D8002279684FF03C
:10493000FF3000F088F9094A7B68136007E0012323
:10494000FB7304E00123FB7301E00123FB73FB7B9A
:1049500018461037BD4680BD580000205400002086
:1049600080B400AF064B1B781A46064B1B681344F5
:10497000044A136000BFBD465DF8047B704700BF6A
:10498000580000205C06002080B400AF034B1B6879
:104990001846BD465DF8047B704700BF5C060020EA
:1049A00080B400AF034B1B681846BD465DF8047B1E
:1049B000704700BF5400002080B500AFFFF756FFDE
:1049C00000BF80BD80B500AFFFF760FF00BF80BDB6
:1049D00080B485B000AF78607B6803F00703FB60AC
:1049E0000C4BDB68BB60BA684FF6FF031340BB603B
:1049F000FB681A02BB68134343F0BF6343F4003300
:104A0000BB60044ABB68D36000BF1437BD465DF885
:104A1000047B704700ED00E080B400AF044BDB681E
:104A20001B0A03F007031846BD465DF8047B704778
:104A300000ED00E080B483B000AF0346FB7197F94E
:104A40000730002B0BDBFB7903F01F02074997F9B6
:104A500007305B09012000FA02F241F8232000BF71
:104A60000C37BD465DF8047B704700BF00E100E0F5
:104A700080B483B000AF0346FB7197F90730002B79
:104A800012DBFB7903F01F020A4997F907305B0933
:104A9000012000FA02F2203341F82320BFF34F8FA8
:104AA00000BFBFF36F8F00BF00BF0C37BD465DF87E
:104AB000047B704700E100E080B483B000AF0346A0
:104AC000FB7197F90730002B0CDBFB7903F01F0219
:104AD000074997F907305B09012000FA02F24033D9
:104AE00041F8232000BF0C37BD465DF8047B7047BA
:104AF00000E100E080B483B000AF0346FB7197F99A
:104B00000730002B0CDBFB7903F01F02074997F9F4
:104B100007305B09012000FA02F2603341F82320DC
:104B200000BF0C37BD465DF8047B704700E100E034
:104B300080B483B000AF03463960FB7197F907304A
:104B4000002B0ADB3B68DAB20C4997F907301201F7
:104B5000D2B20B4483F800230AE03B68DAB208497A
:104B6000FB7903F00F03043B1201D2B20B441A7617
:104B700000BF0C37BD465DF8047B704700E100E0E4
:104B800000ED00E080B489B000AFF860B9607A60F1
:104B9000FB6803F00703FB61FB69C3F10703042B08
:104BA00028BF0423BB61FB690433062B02D9FB69D0
:104BB000033B00E000237B614FF0FF32BB6902FA48
:104BC00003F3DA43BB681A407B699A404FF0FF3128
:104BD0007B6901FA03F3D9437B680B401343184602
:104BE0002437BD465DF8047B7047000080B582B075
:104BF00000AF78607B68013BB3F1807F01D3012374
:104C00000FE00A4A7B68013B53600F214FF0FF30F1
:104C1000FFF78EFF054B00229A60044B07221A60B3
:104C2000002318460837BD4680BD00BF10E000E0F5
:104C300080B582B000AF78607868FFF7C9FE00BF2A
:104C40000837BD4680BD80B586B000AF0346B96069
:104C50007A60FB73FFF7E0FE78617A68B96878697B
:104C6000FFF790FF024697F90F3011461846FFF7FD
:104C70005FFF00BF1837BD4680BD80B582B000AF72
:104C80000346FB7197F907301846FFF7D3FE00BFC4
:104C90000837BD4680BD80B582B000AF0346FB71CA
:104CA00097F907301846FFF7E3FE00BF0837BD4607
:104CB00080BD80B582B000AF78607868FFF796FF5E
:104CC000034618460837BD4680BD80B582B000AFA8
:104CD0000346FB7197F907301846FFF7EDFE00BF5A
:104CE0000837BD4680BD80B582B000AF0346FB717A
:104CF00097F907301846FFF7FDFE00BF0837BD469D
:104D000080BD000080B584B000AF78607B68002B68
:104D100001D1012378E07B681B681A463C4B1344A1
:104D20003C4AA2FB03231B099A007B685A647B68F8
:104D3000394A1A647B68022283F825207B681B6845
:104D40001B68FB60FB6823F4FF4323F07003FB60E8
:104D50007B689A687B68DB681A437B681B691A4327
:104D60007B685B691A437B689B691A437B68DB69D4
:104D70001A437B681B6A1343FA681343FB607B6822
:104D80001B68FA681A60786800F06EFA7B689B68A6
:104D9000B3F5804F02D17B6800225A607B685A6865
:104DA0007B689B6C02F03F021A607B68DB6C7A6860
:104DB000126D5A607B685B68002B10D07B685B6863
:104DC000042B0CD8786800F07BFA7B685B6D0022BE
:104DD0001A607B689B6D7A68D26D5A6008E07B68C8
:104DE00000225A657B6800229A657B680022DA659A
:104DF0007B680022DA637B68012283F825207B68C8
:104E0000002283F82420002318461037BD4680BDB9
:104E1000F8FFFDBFCDCCCCCC0000024080B586B001
:104E200000AFF860B9607A603B600023FB75FB68F7
:104E300093F82430012B01D1022366E0FB680122A4
:104E400083F82420FB6893F82530DBB2012B55D181
:104E5000FB68022283F82520FB680022DA63FB68E6
:104E60001B681A68FB681B6822F001021A603B6825
:104E70007A68B968F86800F0B9F9FB681B6B002B19
:104E800008D0FB681B681A68FB681B6842F00E02BA
:104E90001A600FE0FB681B681A68FB681B6822F049
:104EA00004021A60FB681B681A68FB681B6842F002
:104EB0000A021A60FB689B6C1B6803F48033002BAA
:104EC00007D0FB689B6C1A68FB689B6C42F480728D
:104ED0001A60FB685B6D002B07D0FB685B6D1A687E
:104EE000FB685B6D42F480721A60FB681B681A688D
:104EF000FB681B6842F001021A6005E0FB680022B3
:104F000083F824200223FB75FB7D18461837BD4625
:104F100080BD80B483B000AF78607B68002B01D186
:104F200001234FE07B6893F82530DBB2022B08D0D9
:104F30007B680422DA637B68002283F82420012343
:104F400040E07B681B681A687B681B6822F00E02D1
:104F50001A607B689B6C1A687B689B6C22F4807279
:104F60001A607B681B681A687B681B6822F0010264
:104F70001A607B685B6C03F01C027B681B6C012170
:104F800001FA02F25A607B68DB6C7A68126D5A6033
:104F90007B685B6D002B0CD07B685B6D1A687B684F
:104FA0005B6D22F480721A607B689B6D7A68D26DAB
:104FB0005A607B68012283F825207B68002283F8F1
:104FC0002420002318460C37BD465DF8047B70474B
:104FD00080B584B000AF78600023FB737B6893F8E2
:104FE0002530DBB2022B05D07B680422DA63012373
:104FF000FB7347E07B681B681A687B681B6822F0BC
:105000000E021A607B681B681A687B681B6822F0B6
:1050100001021A607B689B6C1A687B689B6C22F4A7
:1050200080721A607B685B6C03F01C027B681B6CEF
:10503000012101FA02F25A607B68DB6C7A68126D1A
:105040005A607B685B6D002B0CD07B685B6D1A68C7
:105050007B685B6D22F480721A607B689B6D7A6856
:10506000D26D5A607B68012283F825207B6800227C
:1050700083F824207B689B6B002B03D07B689B6BA1
:1050800078689847FB7B18461037BD4680BD80B5D1
:1050900084B000AF78607B681B6C1B68FB607B682A
:1050A0001B681B68BB607B685B6C03F01C030422FD
:1050B0009A40FB681340002B26D0BB6803F0040322
:1050C000002B21D07B681B681B6803F02003002B9A
:1050D00007D17B681B681A687B681B6822F0040292
:1050E0001A607B685B6C03F01C027B681B6C0421FC
:1050F00001FA02F25A607B681B6B002B71D07B684F
:105100001B6B786898476CE07B685B6C03F01C0352
:1051100002229A40FB681340002B2ED0BB6803F09C
:105120000203002B29D07B681B681B6803F0200357
:10513000002B0BD17B681B681A687B681B6822F008
:105140000A021A607B68012283F825207B685B6C69
:1051500003F01C027B681B6C022101FA02F25A6008
:105160007B68002283F824207B68DB6A002B38D020
:105170007B68DB6A7868984733E07B685B6C03F098
:105180001C0308229A40FB681340002B2AD0BB68FE
:1051900003F00803002B25D07B681B681A687B6826
:1051A0001B6822F00E021A607B685B6C03F01C0225
:1051B0007B681B6C012101FA02F25A607B680122B4
:1051C000DA637B68012283F825207B68002283F85C
:1051D00024207B685B6B002B04D07B685B6B78685A
:1051E000984700BF00BF1037BD4680BD80B485B072
:1051F00000AFF860B9607A603B60FB68DB6CFA680E
:10520000126D5A60FB685B6D002B04D0FB689B6DD0
:10521000FA68D26D5A60FB685B6C03F01C02FB6895
:105220001B6C012101FA02F25A60FB681B683A68A4
:105230005A60FB689B68102B08D1FB681B687A6872
:105240009A60FB681B68BA68DA6007E0FB681B6855
:10525000BA689A60FB681B687A68DA6000BF143726
:10526000BD465DF8047B704780B485B000AF7860C0
:105270007B685B6C9B089B0003F1804303F5023362
:105280007A6893647B681B68DBB2083B0A4AA2FB1E
:1052900003231B09FB607B68084ADA64FB6803F0A0
:1052A0001F0301229A407B681A6500BF1437BD4670
:1052B0005DF8047B704700BFCDCCCCCC80080240A9
:1052C00080B485B000AF78607B685B6803F03F0313
:1052D000FB60FA680B4B13449B001A467B685A65C7
:1052E0007B68094A9A65FB68013B03F003030122CE
:1052F0009A407B68DA6500BF1437BD465DF8047BD1
:10530000704700BF3F8200104009024080B487B060
:1053100000AFF8600B467A60FB720023FB75FB7AE6
:10532000002B03D1FB687A685A6002E00123FB7509
:1053300000BFFB7D18461C37BD465DF8047B7047F7
:1053400080B483B000AF786039607B68002B01D1F6
:10535000012303E07B683A681A60002318460C3783
:10536000BD465DF8047B704780B487B000AF7860BD
:105370007B681B681B0C03F001037B617B681B6867
:1053800003F01F03012202FA03F33B617B695B0117
:1053900003F1B04303F60803FB60FB683A691A6047
:1053A00000BF1C37BD465DF8047B704780B487B0F2
:1053B00000AF7860396000237B6146E13B681A6882
:1053C00001217B6901FA03F31340FB60FB68002BAA
:1053D00000F038813B685B6803F00303012B05D0C4
:1053E0003B685B6803F00303022B30D17B689B684A
:1053F0003B617B695B00032202FA03F3DB433A69FA
:1054000013403B613B68DA687B695B0002FA03F397
:105410003A6913433B617B683A699A607B685B68D1
:105420003B6101227B6902FA03F3DB433A691340D3
:105430003B613B685B681B0903F001027B6902FA70
:1054400003F33A6913433B617B683A695A603B68EE
:105450005B6803F00303032B17D07B68DB683B61B9
:105460007B695B00032202FA03F3DB433A691340D2
:105470003B613B689A687B695B0002FA03F33A6917
:1054800013433B617B683A69DA603B685B6803F011
:105490000303022B23D17B69DA087B68083253F8B7
:1054A00022303B617B6903F007039B000F2202FA65
:1054B00003F3DB433A6913403B613B681A697B693C
:1054C00003F007039B0002FA03F33A6913433B61BD
:1054D0007B69DA087B680832396943F822107B68F7
:1054E0001B683B617B695B00032202FA03F3DB4329
:1054F0003A6913403B613B685B6803F003027B69D8
:105500005B0002FA03F33A6913433B617B683A6933
:105510001A603B685B6803F44033002B00F0928014
:10552000514A7B699B08023352F823303B617B6907
:1055300003F003039B000F2202FA03F3DB433A69F3
:1055400013403B617B68B3F1904F13D07B68474AAF
:1055500093420DD07B68464A934207D07B68454A08
:10556000934201D1042306E0072304E0022302E072
:10557000012300E000237A6902F0030292009340C5
:105580003A6913433B6138497B699B0802333A69A6
:1055900041F82320384B1B683B61FB68DB433A69C9
:1055A00013403B613B685B6803F48013002B03D01E
:1055B0003A69FB6813433B612F4A3B6913602E4BEA
:1055C0005B683B61FB68DB433A6913403B613B68C6
:1055D0005B6803F40013002B03D03A69FB681343A4
:1055E0003B61254A3B695360234BD3F880303B61D4
:1055F000FB68DB433A6913403B613B685B6803F43B
:105600008033002B03D03A69FB6813433B611A4A8D
:105610003B69C2F88030184BD3F884303B61FB689B
:10562000DB433A6913403B613B685B6803F400333A
:10563000002B03D03A69FB6813433B610E4A3B6978
:10564000C2F884307B6901337B613B681A687B69EF
:1056500022FA03F3002B7FF4B1AE00BF00BF1C376A
:10566000BD465DF8047B704700000140000400481F
:1056700000080048001000480008005880B483B0BB
:1056800000AF78600B467B8013467B707B78002BE5
:1056900003D07A887B689A6102E07A887B689A6294
:1056A00000BF0C37BD465DF8047B704780B582B003
:1056B00000AF0346FB80084BDA68FB881340002BE1
:1056C00006D0054AFB88D360FB881846FBF7CFFF5E
:1056D00000BF0837BD4680BD0008005880B582B0C5
:1056E00000AF0A4BDB687B60084B1A687B68DB43C2
:1056F000064913400B60054A7B685360786800F0E8
:1057000007F800BF0837BD4680BD00BF0015005830
:1057100080B483B000AF786000BF0C37BD465DF841
:10572000047B704780B584B000AF78600023FB73C2
:105730007B68002B1ED0134BBB607B6893F838301E
:10574000DBB2002B02D17868FDF7DCF9B86800F015
:105750005BF8BB681B6843F00112BB681A6078688D
:1057600000F02CF87B6800225A637B68012283F8E2
:10577000382001E00123FB73FB7B18461037BD4640
:1057800080BD00BF000C005880B485B000AFF86049
:10579000B9601346FB7100BF1437BD465DF8047B4A
:1057A000704780B485B000AFF860B9601346FB71F4
:1057B00000BF1437BD465DF8047B704780B485B0E8
:1057C00000AF78600023FB600FE07A68FB689B0005
:1057D00013440B4A5A607A68FB6806339B001344F3
:1057E000084A5A60FB680133FB60FB68052BECD963
:1057F00000BF00BF1437BD465DF8047B704700BF93
:1058000089570008A357000880B483B000AF7860C0
:105810007B6800221A607B684FF03F125A607B68F9
:105820003F229A6000BF0C37BD465DF8047B70478D
:1058300080B400AF054B1B68044A43F480731360C7
:1058400000BFBD465DF8047B704700BF00040058F0
:1058500080B400AF054B9B68044A43F40073936027
:1058600000BFBD465DF8047B704700BF00040058D0
:1058700080B500AFFFF7ECFF00BF80BD80B400AF84
:105880004FF0B0431B6803F48013B3F5801F01D1C0
:10589000012300E000231846BD465DF8047B7047F5
:1058A00080B400AF4FF0B0431B684FF0B04243F4F8
:1058B0008033136000BFBD465DF8047B704780B441
:1058C00000AF4FF0B0431B684FF0B04223F4803379
:1058D000136000BFBD465DF8047B704780B400AF25
:1058E0004FF0B0431B6803F40033B3F5003F01D120
:1058F000012300E000231846BD465DF8047B704795
:1059000080B400AF4FF0B0431B684FF0B04243F497
:105910008073136000BFBD465DF8047B704780B4A0
:1059200000AF4FF0B0431B684FF0B04223F48073D8
:10593000136000BFBD465DF8047B704780B400AFC4
:105940004FF0B0431B6803F48063B3F5806F01D15F
:10595000012300E000231846BD465DF8047B704734
:1059600080B483B000AF78604FF0B0435B6823F041
:10597000FE427B681B064FF0B04113434B6000BFF3
:105980000C37BD465DF8047B704780B400AF4FF024
:10599000B043D3F890304FF0B04243F00103C2F867
:1059A000903000BFBD465DF8047B704780B400AF07
:1059B0004FF0B043D3F890304FF0B04223F00103E2
:1059C000C2F8903000BFBD465DF8047B704780B4DC
:1059D00000AF4FF0B043D3F890304FF0B04243F0F7
:1059E0000403C2F8903000BFBD465DF8047B7047E9
:1059F00080B400AF4FF0B043D3F890304FF0B042D6
:105A000023F00403C2F8903000BFBD465DF8047B6C
:105A1000704780B400AF4FF0B043D3F8903003F03C
:105A20000203022B01D1012300E000231846BD46EA
:105A30005DF8047B704780B400AF4FF0B043D3F8FB
:105A400094304FF0B04243F00103C2F8943000BFED
:105A5000BD465DF8047B704780B400AF4FF0B043A3
:105A6000D3F894304FF0B04223F00103C2F89430E1
:105A700000BFBD465DF8047B704780B400AF4FF0B7
:105A8000B043D3F8943003F00203022B01D1012379
:105A900000E000231846BD465DF8047B704780B4E3
:105AA00000AF4FF0B043D3F894304FF0B04243F022
:105AB0000403C2F8943000BFBD465DF8047B704714
:105AC00080B400AF4FF0B043D3F894304FF0B04201
:105AD00023F00403C2F8943000BFBD465DF8047B98
